:0400000007EF00F016
:0A0008006B8279ED0CF0ACEF0CF008
:0510000000256900005D
:101006003D0E0C6009EF08F00BEF08F04AEF08F010
:101016001D0E0C6411EF08F013EF08F04AEF08F00C
:101026002A0E5E6E79EC0DF0280E5E6E9EEC0DF0CB
:101036000A0E0C6021EF08F023EF08F02BEF08F002
:10104600210E5E6E0CC05FF00EEC0CF04AEF08F05D
:101056001C0E5E6E0CC056F0576A000E596E0A0ED4
:10106600586ECFEC0AF05650FD0F5F6E0EEC0CF08A
:10107600210E5E6E0CC056F0576A000E596E0A0EAF
:10108600586E31EC0BF056505F6E0EEC0CF0240EE1
:101096000C6050EF08F052EF08F05EEF08F01E0EFD
:1010A6000C6458EF08F05AEF08F05EEF08F0260ED1
:1010B6005E6E79EC0DF01F0E0C6064EF08F066EFC3
:1010C60008F067EF08F00B063D0E0B606DEF08F0B9
:1010D6006FEF08F0BEEF08F01E0E0B6475EF08F018
:1010E60077EF08F0BEEF08F01C0E5E6E000E5F6E26
:1010F6000EEC0CF0210E5E6E000E5F6E0EEC0CF028
:101106002A0E5E6E9EEC0DF0260E5E6E9EEC0DF0C7
:10111600280E5E6E79EC0DF00A0E0B6095EF08F066
:1011260097EF08F09FEF08F0170E5E6E0BC05FF0AA
:101136000EEC0CF0BEEF08F0120E5E6E0BC056F011
:10114600576A000E596E0A0E586ECFEC0AF05650CA
:10115600FD0F5F6E0EEC0CF0170E5E6E0BC056F0B8
:10116600576A000E596E0A0E586E31EC0BF0565047
:101176005F6E0EEC0CF0240E0B60C4EF08F0C6EFA9
:1011860008F0D2EF08F01E0E0B64CCEF08F0CEEF9D
:1011960008F0D2EF08F0260E5E6E79EC0DF01E0E0A
:1011A6000B18D8A4D9EF08F0DBEF08F0F7EF08F03A
:1011B6003D0E0B6E3D0E0C6E120E5E6E000E5F6ED9
:1011C6000EEC0CF0170E5E6E000E5F6E0EEC0CF061
:1011D6002A0E5E6E9EEC0DF0280E5E6E9EEC0DF0F5
:1011E600260E5E6E9EEC0DF00C06120000019B5161
:1011F600D8B400EF09F002EF09F01AEF09F09B519D
:10120600D96EDA6ADF30E832E832070B9D6F080ED6
:101216009D6110EF09F012EF09F01AEF09F0010EC7
:101226009C6518EF09F01AEF09F075EF09F0000E4A
:10123600A26F95EF09F09B51D96EDA6ADF30E8327A
:10124600E832070B9D6F010E9E6F9D2B2DEF09F067
:10125600D8909E379D2F2BEF09F000019E51FF0A73
:101266009F6F9B51D96EDA6ADF50070B020DF35060
:10127600010FD96EDA6ADECFA0F0DDCFA1F0A0C0F3
:10128600D9FFA1C0DAFF9F51DF168AEF09F09B5103
:10129600D96EDA6ADF30E832E832070B9D6F010E4D
:1012A6009E6F9D2B59EF09F0D8909E379D2F57EFD3
:1012B60009F000019B51D96EDA6ADF50070B020D67
:1012C600F350010FD96EDA6ADECF9FF0DDCFA0F0C2
:1012D6009FC0D9FFA0C0DAFF9E51DF128AEF09F046
:1012E6008AEF09F09C519D6F9E6B9E51000AD8B4FF
:1012F6007FEF09F073EF09F09D51000AD8B41EEF95
:1013060009F0010AD8B44AEF09F073EF09F09B51CE
:10131600D96EDA6A9CB102D0DF9E02D00001DF8E60
:10132600010EA26FA251120000019B51D8B49EEF8C
:1013360009F0A0EF09F0B8EF09F09B51D96EDA6A0F
:10134600DF30E832E832070B9D6F080E9D61AEEF85
:1013560009F0B0EF09F0B8EF09F0010E9C65B6EFA1
:1013660009F0B8EF09F013EF0AF0000EA26F33EFA1
:101376000AF09B51D96EDA6ADF30E832E832070BA1
:101386009D6F010E9E6F9D2BCBEF09F0D8909E3777
:101396009D2FC9EF09F000019E51FF0A9F6F9B51D7
:1013A600D96EDA6ADF50070B020DF3508A0FD96E39
:1013B600DA6ADECFA0F0DDCFA1F0A0C0D9FFA1C0D0
:1013C600DAFF9F51DF1628EF0AF09B51D96EDA6AD1
:1013D600DF30E832E832070B9D6F010E9E6F9D2BC2
:1013E600F7EF09F0D8909E379D2FF5EF09F0000131
:1013F6009B51D96EDA6ADF50070B020DF3508A0F44
:10140600D96EDA6ADECF9FF0DDCFA0F09FC0D9FF9C
:10141600A0C0DAFF9E51DF1228EF0AF028EF0AF08B
:101426009C519D6F9E6B9E51000AD8B41DEF0AF029
:1014360011EF0AF09D51000AD8B4BCEF09F0010A79
:10144600D8B4E8EF09F011EF0AF09B51D96EDA6AC9
:101456009CB102D0DF9C02D00001DF8C010EA26F8E
:10146600A25112005650D8B43BEF0AF03DEF0AF0F5
:1014760055EF0AF05650D96EDA6ADF30E832E832B4
:10148600070B586E080E58604BEF0AF04DEF0AF046
:1014960055EF0AF0010E576453EF0AF055EF0AF0C4
:1014A600AEEF0AF0000E5D6ECDEF0AF05650D96E23
:1014B600DA6ADF30E832E832070B586E010E596EF1
:1014C600582A68EF0AF0D8905936582E66EF0AF077
:1014D6005950FF0A5A6E5650D96EDA6ADF50070B1A
:1014E600020DF350010FD96EDA6ADECF5BF0DDCF65
:1014F6005CF05BC0D9FF5CC0DAFF5A50DF16C3EF61
:101506000AF05650D96EDA6ADF30E832E832070B55
:10151600586E010E596E582A93EF0AF0D890593634
:10152600582E91EF0AF05650D96EDA6ADF50070B43
:10153600020DF350010FD96EDA6ADECF5AF0DDCF15
:101546005BF05AC0D9FF5BC0DAFF5950DF12C3EF18
:101556000AF0C3EF0AF05750586E596A5950000AFC
:10156600D8B4B8EF0AF0ACEF0AF05850000AD8B475
:1015760059EF0AF0010AD8B484EF0AF0ACEF0AF08A
:101586005650D96EDA6A57B002D0DF9E01D0DF8E90
:10159600010E5D6E5D501200000E5B6E59BED8EFF7
:1015A6000AF0D6EF0AF0DEEF0AF0586C591ED8B0F2
:1015B600592A010E5B6E57BEE5EF0AF0E3EF0AF01B
:1015C600EBEF0AF0566C571ED8B0572A010E5B1A7D
:1015D600000E5D6E000E5C6E58505910D8B4F6EFD2
:1015E6000AF0F8EF0AF020EF0BF0010E5A6E00EF4A
:1015F6000BF0D890583659365A2A59AE05EF0BF0EB
:1016060007EF0BF0FCEF0AF0D8905C365D365850C9
:10161600565C59505758D8A013EF0BF015EF0BF046
:101626001AEF0BF05850565E5950575A5C80D890B6
:10163600593258325A2E07EF0BF05B50D8B426EFCA
:101646000BF028EF0BF02CEF0BF05C6C5D1ED8B0A6
:101656005D2A5CC056F05DC057F01200000E5B6E4E
:1016660057BE3AEF0BF038EF0BF040EF0BF0566C2D
:10167600571ED8B0572A010E5B6E59BE47EF0BF0C6
:1016860045EF0BF04BEF0BF0586C591ED8B0592AAA
:1016960058505910D8B452EF0BF054EF0BF078EFC6
:1016A6000BF0010E5A6E5CEF0BF0D8905836593697
:1016B6005A2A59AE61EF0BF063EF0BF058EF0BF0BF
:1016C6005850565C59505758D8A06CEF0BF06EEF37
:1016D6000BF072EF0BF05850565E5950575AD8908F
:1016E600593258325A2E63EF0BF05B50D8B47EEF66
:1016F6000BF080EF0BF084EF0BF0566C571ED8B052
:10170600572A56C056F057C057F0120000019D5197
:10171600D8A490EF0BF092EF0BF096EF0BF0000EC3
:10172600A06FD0EF0BF0D59E9DC09BF001EC0DF0A5
:101736009DC09BF0D2EC0BF09DC09BF0C3EC0DF06E
:1017460000019D51D96EDA6A040ED926DECF9EF0CD
:10175600DDCF9FF09FC09EF09F6B9E51D76E9D512F
:10176600D96EDA6A040ED926DF50D66E9D51D96E2F
:10177600DA6A040ED926DECF32F0DDCF33F0F294EA
:10178600F28EF28CF28A9D51D96EDA6ADECF34F08F
:10179600DDCF35F0D58E010EA06FA05112000001ED
:1017A6009B51D96EDA6A060ED926DFA4DDEF0BF05F
:1017B600DFEF0BF0E2EF0BF0D59A0DEF0CF09B513B
:1017C600D96EDA6A060ED926DFB4ECEF0BF0EEEF2F
:1017D6000BF00DEF0CF0D58A9B51D96EDA6A060E26
:1017E600D926DFB6F9EF0BF0FBEF0BF0FEEF0BF0AF
:1017F600D5980DEF0CF09B51D96EDA6A060ED926F4
:10180600DFA608EF0CF00AEF0CF00DEF0CF0D58810
:101816000DEF0CF01200000E626E5E50D8B416EF9B
:101826000CF018EF0CF020EF0CF0090E5F641EEFC1
:101836000CF020EF0CF022EF0CF045EF0CF0000E50
:10184600526E070E52642AEF0CF02CEF0CF02EEFBE
:101856000CF045EF0CF05E505224566E52C060F00C
:101866005FC061F0602A3AEF0CF0D8906132602ECA
:1018760038EF0CF06150010B576E35EC0AF0522A26
:1018860024EF0CF01200000E0001A56FA351D8B48E
:101896004FEF0CF051EF0CF061EF0CF0A351D96E45
:1018A600DA6ADF30E832E832070BA46F070EA46568
:1018B6005FEF0CF061EF0CF065EF0CF0000EA66F19
:1018C60077EF0CF0A3C09BF0000E9C6F97EC09F02D
:1018D6000001A56FA3C09BF0000E9C6FF9EC08F009
:1018E6000001A56F010EA66FA65112000600FACFE1
:1018F60063F0FBCF64F0E1CF65F0E2CF66F0D9CFBD
:1019060067F0DACF68F0F3CF69F0F4CF6AF0F2AAA5
:101916008FEF0CF091EF0CF09AEF0CF0F2A496EF2B
:101926000CF098EF0CF09AEF0CF0E1EC0DF06AC0B9
:10193600F4FF69C0F3FF68C0DAFF67C0D9FF66C06D
:10194600E2FF65C0E1FF64C0FBFF63C0FAFF6B9274
:101956001100230EF66E1C0EF76E000EF86E00EEEA
:1019660080F010EE1BF00900F5CFEEFFE550E150D8
:10197600FAE1F80EF66E1B0EF76E000EF86E00EE2C
:1019860001F010EE2BF00900F5CFEEFFE550E15027
:10199600FAE100EE2CF02A0EEE6AE806FDE16B9005
:1019A6006B9200011FEF0EF0000E0001A86FA75109
:1019B600D8A4E0EF0CF0E2EF0CF0E6EF0CF0000E2E
:1019C600A96FFFEF0CF0A7C0A3F046EC0CF00001E6
:1019D600A751D96EDA6A010ED926A751E16EE26ADD
:1019E600E7BEF8EF0CF0FBEF0CF0010EFCEF0CF08D
:1019F600000EDF6E010EA96FA951120000019B5166
:101A0600D96EDA6A060ED926DFB00CEF0DF00EEFAE
:101A16000DF01DEF0DF0D5969B51D96EDA6A030EC7
:101A2600D926DF509C6FD5509C19F80B9C19D56EA2
:101A36002AEF0DF09B51D96EDA6A060ED926DFA081
:101A460027EF0DF029EF0DF02AEF0DF0D5861200E5
:101A56002A0E0001A76FD7EC0CF0260E0001A76F27
:101A6600D7EC0CF0280E0001A76FD7EC0CF0940E03
:101A760000019D6F89EC0BF0210E0001A76F54EC5D
:101A86000DF01C0E0001A76F54EC0DF0170E0001AF
:101A9600A76F54EC0DF0120E0001A76F54EC0DF079
:101AA6001200000E0001A86FA751D8A45DEF0DF03B
:101AB6005FEF0DF063EF0DF0000EA96F77EF0DF0FD
:101AC600000E536E0001A7515324A36F46EC0CF091
:101AD600532A070E536472EF0DF074EF0DF065EFA5
:101AE6000DF0010E0001A96FA9511200000E5F6EE4
:101AF6005E50D8A481EF0DF083EF0DF085EF0DF069
:101B06009DEF0DF05EC056F0010E576E35EC0AF0F3
:101B16005E50D96EDA6A010ED9265E50E16EE26A2F
:101B2600E7BE98EF0DF09BEF0DF0010E9CEF0DF068
:101B3600000EDF6E1200000E5F6E5E50D8A4A6EF98
:101B46000DF0A8EF0DF0AAEF0DF0C2EF0DF05EC09C
:101B560056F0000E576E35EC0AF05E50D96EDA6A12
:101B6600010ED9265E50E16EE26AE7BEBDEF0DF0CA
:101B7600C0EF0DF0010EC1EF0DF0000EDF6E12008A
:101B860000019B51D96EDA6A060ED926DFA2CEEF86
:101B96000DF0D0EF0DF0D3EF0DF0D58CE0EF0DF09A
:101BA6009B51D96EDA6A060ED926DFB2DDEF0DF04B
:101BB600DFEF0DF0E0EF0DF0D59C1200F2943350FC
:101BC600D76E32C0D6FF34503510D8B4EDEF0DF0D5
:101BD600EFEF0DF0FBEF0DF002D8FBEF0DF0050077
:101BE600FA6E3450FD6E3550FE6EFF6AFA501200E2
:101BF6001200890F8A0F8B0F8C0F8D0F3D3C010150
:101C060001010421293139000109111900232B335F
:101C16003B00030B131B000A0012000200800F8119
:101C26000F820F830F840F920F930F940F950F96C9
:101C36000F06100004DC0B042BEC0DF021EF0EF068
:041C460007EF00F0B4
:020000040030CA
:0E000000FF02091EFF8181FF0FC00FE00F40BD
:00000001FF
